{
  "contractName": "LoanRequest",
  "abi": [
    {
      "inputs": [],
      "payable": false,
      "stateMutability": "nonpayable",
      "type": "constructor"
    },
    {
      "constant": true,
      "inputs": [],
      "name": "loan_offer_count",
      "outputs": [
        {
          "internalType": "uint256",
          "name": "",
          "type": "uint256"
        }
      ],
      "payable": false,
      "stateMutability": "view",
      "type": "function"
    },
    {
      "constant": true,
      "inputs": [
        {
          "internalType": "uint256",
          "name": "",
          "type": "uint256"
        }
      ],
      "name": "loans",
      "outputs": [
        {
          "internalType": "uint256",
          "name": "loan_id",
          "type": "uint256"
        },
        {
          "internalType": "uint256",
          "name": "lend_currency",
          "type": "uint256"
        },
        {
          "internalType": "uint256",
          "name": "max_lend_amount",
          "type": "uint256"
        },
        {
          "internalType": "uint256",
          "name": "min_lend_amount",
          "type": "uint256"
        },
        {
          "internalType": "uint256",
          "name": "select_collateral_currency",
          "type": "uint256"
        },
        {
          "internalType": "uint256",
          "name": "loan_to_value_percentage",
          "type": "uint256"
        },
        {
          "internalType": "uint256",
          "name": "set_interest_rate",
          "type": "uint256"
        },
        {
          "internalType": "uint256",
          "name": "min_loan_duration_days",
          "type": "uint256"
        },
        {
          "internalType": "uint256",
          "name": "max_loan_duration_days",
          "type": "uint256"
        }
      ],
      "payable": false,
      "stateMutability": "view",
      "type": "function"
    },
    {
      "constant": false,
      "inputs": [
        {
          "internalType": "uint256",
          "name": "_lend_currency",
          "type": "uint256"
        },
        {
          "internalType": "uint256",
          "name": "_max_lend_amount",
          "type": "uint256"
        },
        {
          "internalType": "uint256",
          "name": "_min_lend_amount",
          "type": "uint256"
        },
        {
          "internalType": "uint256",
          "name": "_select_collateral_currency",
          "type": "uint256"
        },
        {
          "internalType": "uint256",
          "name": "_loan_to_value_percentage",
          "type": "uint256"
        },
        {
          "internalType": "uint256",
          "name": "_set_interest_rate",
          "type": "uint256"
        },
        {
          "internalType": "uint256",
          "name": "_min_loan_duration_days",
          "type": "uint256"
        },
        {
          "internalType": "uint256",
          "name": "_max_loan_duration_days",
          "type": "uint256"
        }
      ],
      "name": "create_loan_offer",
      "outputs": [],
      "payable": false,
      "stateMutability": "nonpayable",
      "type": "function"
    }
  ],
  "bytecode": "0x60806040526000805534801561001457600080fd5b506102ab806100246000396000f3fe608060405234801561001057600080fd5b50600436106100415760003560e01c806325f1947e14610046578063e1ec3c6814610064578063f1746541146100de575b600080fd5b61004e610153565b6040518082815260200191505060405180910390f35b6100906004803603602081101561007a57600080fd5b8101908080359060200190929190505050610159565b604051808a8152602001898152602001888152602001878152602001868152602001858152602001848152602001838152602001828152602001995050505050505050505060405180910390f35b61015160048036036101008110156100f557600080fd5b8101908080359060200190929190803590602001909291908035906020019092919080359060200190929190803590602001909291908035906020019092919080359060200190929190803590602001909291905050506101a7565b005b60005481565b60016020528060005260406000206000915090508060000154908060010154908060020154908060030154908060040154908060050154908060060154908060070154908060080154905089565b60008081548092919060010191905055506040518061012001604052806000548152602001898152602001888152602001878152602001868152602001858152602001848152602001838152602001828152506001600080548152602001908152602001600020600082015181600001556020820151816001015560408201518160020155606082015181600301556080820151816004015560a0820151816005015560c0820151816006015560e082015181600701556101008201518160080155905050505050505050505056fea265627a7a723158204314aeac5422617f422d97cdc61e2788c39db2c8bca69dba84589bc6b8e9f3d264736f6c63430005100032",
  "source": "// SPDX-License-Identifier: MIT\r\npragma solidity >=0.4.21 <0.7.0;\r\n\r\ncontract LoanRequest{\r\n\tuint public loan_offer_count=0;\r\n\r\n\tstruct Loan_Offer{\r\n\t\t//Loan id\r\n\t\tuint loan_id;\r\n\r\n\t\t//Lending currency\r\n\t\tuint256 lend_currency;\r\n\r\n\t\t//Amount to lend (in crypto native currency selected above)\r\n\t\tuint256 max_lend_amount;\r\n\t\t//how much is the minimum amount of total committed value can be lent\r\n\t\tuint256 min_lend_amount;\r\n\r\n\t\tuint256 select_collateral_currency;\r\n\t\tuint256 loan_to_value_percentage;\r\n\t\t\r\n\t\t//Interest Rate\r\n\t\tuint256 set_interest_rate;\r\n\r\n\t\t//Loan Duration in Days\r\n\t\tuint256 min_loan_duration_days;\t\r\n\t\tuint256 max_loan_duration_days;\r\n\t}\r\n\r\n\tmapping (uint=> Loan_Offer) public loans;\r\n\r\n\tconstructor() public{\r\n\t\t//Either we need to use actual values or from front-end or just do nothing\r\n\t\t//create_loan_offer(_lend_currency, _max_lend_amount, _min_lend_amount, _select_collateral_currency,\r\n\t\t  //_loan_to_value_percentage, _set_interest_rate, _min_loan_duration_days,_max_loan_duration_days);\r\n\t}\r\n\r\n\tfunction create_loan_offer(\r\n\t\tuint256  _lend_currency, \r\n\t\tuint256  _max_lend_amount, \r\n\t\tuint256  _min_lend_amount,\r\n\t\tuint256  _select_collateral_currency,\r\n\t\tuint256  _loan_to_value_percentage,\r\n\t\tuint256  _set_interest_rate,\r\n\t\tuint256  _min_loan_duration_days,\r\n\t\tuint256  _max_loan_duration_days\r\n\t) public {\r\n\t\tloan_offer_count ++;\r\n\t\tloans[loan_offer_count] = Loan_Offer(loan_offer_count, _lend_currency, _max_lend_amount, _min_lend_amount, _select_collateral_currency,\r\n\t\t  _loan_to_value_percentage, _set_interest_rate, _min_loan_duration_days,_max_loan_duration_days);\r\n\t}\r\n}",
  "sourcePath": "C:\\Users\\jay25\\Test_ETH\\contracts\\LoanRequest.sol",
  "compiler": {
    "name": "solc",
    "version": "0.5.16+commit.9c3226ce.Emscripten.clang"
  },
  "schemaVersion": "3.2.0",
  "updatedAt": "2020-07-26T12:50:57.532Z",
  "devdoc": {
    "methods": {}
  },
  "userdoc": {
    "methods": {}
  }
}